{
  "contractName": "Election",
  "abi": [
    {
      "constant": true,
      "inputs": [],
      "name": "startDate",
      "outputs": [
        {
          "name": "",
          "type": "uint256"
        }
      ],
      "payable": false,
      "stateMutability": "view",
      "type": "function"
    },
    {
      "constant": true,
      "inputs": [
        {
          "name": "",
          "type": "uint256"
        },
        {
          "name": "",
          "type": "uint256"
        }
      ],
      "name": "voteCount",
      "outputs": [
        {
          "name": "",
          "type": "uint256"
        }
      ],
      "payable": false,
      "stateMutability": "view",
      "type": "function"
    },
    {
      "constant": true,
      "inputs": [],
      "name": "endDate",
      "outputs": [
        {
          "name": "",
          "type": "uint256"
        }
      ],
      "payable": false,
      "stateMutability": "view",
      "type": "function"
    },
    {
      "constant": true,
      "inputs": [
        {
          "name": "",
          "type": "uint256"
        }
      ],
      "name": "voters",
      "outputs": [
        {
          "name": "",
          "type": "bytes32"
        }
      ],
      "payable": false,
      "stateMutability": "view",
      "type": "function"
    },
    {
      "constant": true,
      "inputs": [],
      "name": "electionID",
      "outputs": [
        {
          "name": "",
          "type": "string"
        }
      ],
      "payable": false,
      "stateMutability": "view",
      "type": "function"
    },
    {
      "inputs": [
        {
          "name": "id",
          "type": "string"
        }
      ],
      "payable": false,
      "stateMutability": "nonpayable",
      "type": "constructor"
    },
    {
      "constant": false,
      "inputs": [
        {
          "name": "ballot",
          "type": "uint256"
        },
        {
          "name": "candidate",
          "type": "uint256"
        }
      ],
      "name": "addVote",
      "outputs": [],
      "payable": false,
      "stateMutability": "nonpayable",
      "type": "function"
    },
    {
      "constant": true,
      "inputs": [],
      "name": "getId",
      "outputs": [
        {
          "name": "",
          "type": "string"
        }
      ],
      "payable": false,
      "stateMutability": "view",
      "type": "function"
    }
  ],
  "bytecode": "0x608060405234801561001057600080fd5b506040516106513803806106518339810180604052602081101561003357600080fd5b81019080805164010000000081111561004b57600080fd5b8281019050602081018481111561006157600080fd5b815185600182028301116401000000008211171561007e57600080fd5b5050929190505050806001908051906020019061009c9291906100a3565b5050610148565b828054600181600116156101000203166002900490600052602060002090601f016020900481019282601f106100e457805160ff1916838001178555610112565b82800160010185558215610112579182015b828111156101115782518255916020019190600101906100f6565b5b50905061011f9190610123565b5090565b61014591905b80821115610141576000816000905550600101610129565b5090565b90565b6104fa806101576000396000f3fe608060405260043610610083576000357c0100000000000000000000000000000000000000000000000000000000900463ffffffff1680630b97bc86146100885780635d1ca631146100b3578063ba32941414610143578063c24a0f8b1461019c578063da58c7d9146101c7578063f8e78e9a14610216578063fcca991b146102a6575b600080fd5b34801561009457600080fd5b5061009d6102eb565b6040518082815260200191505060405180910390f35b3480156100bf57600080fd5b506100c86102f1565b6040518080602001828103825283818151815260200191508051906020019080838360005b838110156101085780820151818401526020810190506100ed565b50505050905090810190601f1680156101355780820380516001836020036101000a031916815260200191505b509250505060405180910390f35b34801561014f57600080fd5b506101866004803603604081101561016657600080fd5b810190808035906020019092919080359060200190929190505050610393565b6040518082815260200191505060405180910390f35b3480156101a857600080fd5b506101b16103c9565b6040518082815260200191505060405180910390f35b3480156101d357600080fd5b50610200600480360360208110156101ea57600080fd5b81019080803590602001909291905050506103cf565b6040518082815260200191505060405180910390f35b34801561022257600080fd5b5061022b6103f2565b6040518080602001828103825283818151815260200191508051906020019080838360005b8381101561026b578082015181840152602081019050610250565b50505050905090810190601f1680156102985780820380516001836020036101000a031916815260200191505b509250505060405180910390f35b3480156102b257600080fd5b506102e9600480360360408110156102c957600080fd5b810190808035906020019092919080359060200190929190505050610490565b005b60025481565b606060018054600181600116156101000203166002900480601f0160208091040260200160405190810160405280929190818152602001828054600181600116156101000203166002900480156103895780601f1061035e57610100808354040283529160200191610389565b820191906000526020600020905b81548152906001019060200180831161036c57829003601f168201915b5050505050905090565b6000828154811015156103a257fe5b9060005260206000209060030201816003811015156103bd57fe5b01600091509150505481565b60035481565b6004818154811015156103de57fe5b906000526020600020016000915090505481565b60018054600181600116156101000203166002900480601f0160208091040260200160405190810160405280929190818152602001828054600181600116156101000203166002900480156104885780601f1061045d57610100808354040283529160200191610488565b820191906000526020600020905b81548152906001019060200180831161046b57829003601f168201915b505050505081565b60016000838154811015156104a157fe5b9060005260206000209060030201826003811015156104bc57fe5b0160008282540192505081905550505056fea165627a7a723058202b4b568147eb3b2a9876a9fb4f2a877c412c16801602616a1bdc165007bd1c930029",
  "source": "pragma solidity^0.5.0;\r\n\r\n contract Election {\r\n    \r\n    uint [3][] public voteCount;\r\n    string public electionID;\r\n    uint public startDate;\r\n    uint public endDate;\r\n    bytes32 [] public voters;\r\n\r\n    constructor(string memory id) public {\r\n        electionID = id;\r\n    }\r\n\r\n    struct Vote {\r\n        uint age;\r\n        bool gender;    //true for Male, false for Female\r\n        uint [3] votes;  //stores indices\r\n    }\r\n\r\n    function addVote(uint ballot, uint candidate) external {\r\n        voteCount[ballot][candidate] += 1;\r\n    }\r\n\r\n    function getId() public view returns (string memory){\r\n        return electionID;\r\n    }\r\n\r\n    // function countVotes() public view {\r\n    //     uint count = 0;\r\n\r\n    //     for(uint i=0; i>0; i++) {\r\n    //         for( uint j=0; j<=i; j++) {\r\n    //             if (voteCount[i][j] > 0) {\r\n    //                 count++;\r\n    //             }\r\n    //             else {\r\n    //                 break;\r\n    //             }\r\n    //         }\r\n    //     }\r\n\r\n    //     returns (uint count)\r\n\r\n    // }\r\n\r\n    // function votePeriod() public view {\r\n    //     uint days = (endDate - startDate) / 60 / 60 / 24;\r\n    //     returns (uint days)\r\n    // }\r\n\r\n}\r\n\r\n",
  "sourcePath": "C:/Users/bevan/OneDrive/Documents/GitHub/Vote-Vault/Backend/Blockchain/contracts/Election.sol",
  "compiler": {
    "name": "solc",
    "version": "0.5.0+commit.1d4f565a.Emscripten.clang"
  },
  "schemaVersion": "3.0.1",
  "updatedAt": "2022-07-23T14:25:56.140Z",
  "devdoc": {
    "methods": {}
  },
  "userdoc": {
    "methods": {}
  }
}