{
  "contractName": "Election",
  "abi": [
    {
      "constant": true,
      "inputs": [],
      "name": "startDate",
      "outputs": [
        {
          "name": "",
          "type": "uint256"
        }
      ],
      "payable": false,
      "stateMutability": "view",
      "type": "function"
    },
    {
      "constant": true,
      "inputs": [
        {
          "name": "",
          "type": "uint256"
        }
      ],
      "name": "votes_one",
      "outputs": [
        {
          "name": "",
          "type": "uint256"
        }
      ],
      "payable": false,
      "stateMutability": "view",
      "type": "function"
    },
    {
      "constant": true,
      "inputs": [],
      "name": "endDate",
      "outputs": [
        {
          "name": "",
          "type": "uint256"
        }
      ],
      "payable": false,
      "stateMutability": "view",
      "type": "function"
    },
    {
      "constant": true,
      "inputs": [
        {
          "name": "",
          "type": "uint256"
        }
      ],
      "name": "votes_two",
      "outputs": [
        {
          "name": "",
          "type": "uint256"
        }
      ],
      "payable": false,
      "stateMutability": "view",
      "type": "function"
    },
    {
      "constant": true,
      "inputs": [
        {
          "name": "",
          "type": "uint256"
        }
      ],
      "name": "votes_three",
      "outputs": [
        {
          "name": "",
          "type": "uint256"
        }
      ],
      "payable": false,
      "stateMutability": "view",
      "type": "function"
    },
    {
      "constant": true,
      "inputs": [],
      "name": "electionID",
      "outputs": [
        {
          "name": "",
          "type": "string"
        }
      ],
      "payable": false,
      "stateMutability": "view",
      "type": "function"
    },
    {
      "inputs": [
        {
          "name": "id",
          "type": "string"
        },
        {
          "name": "sd",
          "type": "uint256"
        },
        {
          "name": "ed",
          "type": "uint256"
        },
        {
          "name": "numCandidates",
          "type": "uint256[]"
        }
      ],
      "payable": false,
      "stateMutability": "nonpayable",
      "type": "constructor"
    },
    {
      "constant": true,
      "inputs": [],
      "name": "getVotes1",
      "outputs": [
        {
          "name": "",
          "type": "uint256[]"
        }
      ],
      "payable": false,
      "stateMutability": "view",
      "type": "function"
    },
    {
      "constant": false,
      "inputs": [
        {
          "name": "id",
          "type": "string"
        },
        {
          "name": "age",
          "type": "uint256"
        },
        {
          "name": "gender",
          "type": "string"
        }
      ],
      "name": "registerUser",
      "outputs": [],
      "payable": false,
      "stateMutability": "nonpayable",
      "type": "function"
    },
    {
      "constant": false,
      "inputs": [
        {
          "name": "id",
          "type": "string"
        },
        {
          "name": "votes",
          "type": "uint256[]"
        }
      ],
      "name": "addVote",
      "outputs": [],
      "payable": false,
      "stateMutability": "nonpayable",
      "type": "function"
    },
    {
      "constant": true,
      "inputs": [],
      "name": "getId",
      "outputs": [
        {
          "name": "",
          "type": "string"
        }
      ],
      "payable": false,
      "stateMutability": "view",
      "type": "function"
    },
    {
      "constant": false,
      "inputs": [
        {
          "name": "id",
          "type": "string"
        }
      ],
      "name": "updateId",
      "outputs": [],
      "payable": false,
      "stateMutability": "nonpayable",
      "type": "function"
    }
  ],
  "bytecode": "0x60806040523480156200001157600080fd5b50604051620011c8380380620011c8833981018060405260808110156200003757600080fd5b8101908080516401000000008111156200005057600080fd5b828101905060208101848111156200006757600080fd5b81518560018202830111640100000000821117156200008557600080fd5b505092919060200180519060200190929190805190602001909291908051640100000000811115620000b657600080fd5b82810190506020810184811115620000cd57600080fd5b8151856020820283011164010000000082111715620000eb57600080fd5b505092919050505083600390805190602001906200010b9291906200034e565b5082600481905550816005819055508060008151811015156200012a57fe5b90602001906020020151604051908082528060200260200182016040528015620001635781602001602082028038833980820191505090505b50600090805190602001906200017b929190620003d5565b508060018151811015156200018c57fe5b90602001906020020151604051908082528060200260200182016040528015620001c55781602001602082028038833980820191505090505b5060019080519060200190620001dd929190620003d5565b50806002815181101515620001ee57fe5b90602001906020020151604051908082528060200260200182016040528015620002275781602001602082028038833980820191505090505b50600290805190602001906200023f929190620003d5565b5060008090505b8160008151811015156200025657fe5b906020019060200201518110156200029557600080828154811015156200027957fe5b9060005260206000200181905550808060010191505062000246565b5060008090505b816001815181101515620002ac57fe5b90602001906020020151811015620002ec576000600182815481101515620002d057fe5b906000526020600020018190555080806001019150506200029c565b5060008090505b8160028151811015156200030357fe5b90602001906020020151811015620003435760006002828154811015156200032757fe5b90600052602060002001819055508080600101915050620002f3565b50505050506200044f565b828054600181600116156101000203166002900490600052602060002090601f016020900481019282601f106200039157805160ff1916838001178555620003c2565b82800160010185558215620003c2579182015b82811115620003c1578251825591602001919060010190620003a4565b5b509050620003d1919062000427565b5090565b82805482825590600052602060002090810192821562000414579160200282015b8281111562000413578251825591602001919060010190620003f6565b5b50905062000423919062000427565b5090565b6200044c91905b80821115620004485760008160009055506001016200042e565b5090565b90565b610d69806200045f6000396000f3fe6080604052600436106100af576000357c0100000000000000000000000000000000000000000000000000000000900463ffffffff1680630b97bc86146100b4578063151cb180146100df5780635295da5d1461012e5780635d1ca6311461028a5780635ede13731461031a57806362609da4146103e2578063a05122021461054b578063c24a0f8b146105b7578063dfd66c6d146105e2578063f0b99cdd14610631578063f8e78e9a14610680575b600080fd5b3480156100c057600080fd5b506100c9610710565b6040518082815260200191505060405180910390f35b3480156100eb57600080fd5b506101186004803603602081101561010257600080fd5b8101908080359060200190929190505050610716565b6040518082815260200191505060405180910390f35b34801561013a57600080fd5b506102886004803603604081101561015157600080fd5b810190808035906020019064010000000081111561016e57600080fd5b82018360208201111561018057600080fd5b803590602001918460018302840111640100000000831117156101a257600080fd5b91908080601f016020809104026020016040519081016040528093929190818152602001838380828437600081840152601f19601f8201169050808301925050505050505091929192908035906020019064010000000081111561020557600080fd5b82018360208201111561021757600080fd5b8035906020019184602083028401116401000000008311171561023957600080fd5b919080806020026020016040519081016040528093929190818152602001838360200280828437600081840152601f19601f820116905080830192505050505050509192919290505050610739565b005b34801561029657600080fd5b5061029f6108ff565b6040518080602001828103825283818151815260200191508051906020019080838360005b838110156102df5780820151818401526020810190506102c4565b50505050905090810190601f16801561030c5780820380516001836020036101000a031916815260200191505b509250505060405180910390f35b34801561032657600080fd5b506103e06004803603602081101561033d57600080fd5b810190808035906020019064010000000081111561035a57600080fd5b82018360208201111561036c57600080fd5b8035906020019184600183028401116401000000008311171561038e57600080fd5b91908080601f016020809104026020016040519081016040528093929190818152602001838380828437600081840152601f19601f8201169050808301925050505050505091929192905050506109a1565b005b3480156103ee57600080fd5b506105496004803603606081101561040557600080fd5b810190808035906020019064010000000081111561042257600080fd5b82018360208201111561043457600080fd5b8035906020019184600183028401116401000000008311171561045657600080fd5b91908080601f016020809104026020016040519081016040528093929190818152602001838380828437600081840152601f19601f82011690508083019250505050505050919291929080359060200190929190803590602001906401000000008111156104c357600080fd5b8201836020820111156104d557600080fd5b803590602001918460018302840111640100000000831117156104f757600080fd5b91908080601f016020809104026020016040519081016040528093929190818152602001838380828437600081840152601f19601f8201169050808301925050505050505091929192905050506109bb565b005b34801561055757600080fd5b50610560610abc565b6040518080602001828103825283818151815260200191508051906020019060200280838360005b838110156105a3578082015181840152602081019050610588565b505050509050019250505060405180910390f35b3480156105c357600080fd5b506105cc610b14565b6040518082815260200191505060405180910390f35b3480156105ee57600080fd5b5061061b6004803603602081101561060557600080fd5b8101908080359060200190929190505050610b1a565b6040518082815260200191505060405180910390f35b34801561063d57600080fd5b5061066a6004803603602081101561065457600080fd5b8101908080359060200190929190505050610b3d565b6040518082815260200191505060405180910390f35b34801561068c57600080fd5b50610695610b60565b6040518080602001828103825283818151815260200191508051906020019080838360005b838110156106d55780820151818401526020810190506106ba565b50505050905090810190601f1680156107025780820380516001836020036101000a031916815260200191505b509250505060405180910390f35b60045481565b60008181548110151561072557fe5b906000526020600020016000915090505481565b6001600082600081518110151561074c57fe5b9060200190602002015181548110151561076257fe5b906000526020600020015401600082600081518110151561077f57fe5b9060200190602002015181548110151561079557fe5b9060005260206000200181905550600160008260018151811015156107b657fe5b906020019060200201518154811015156107cc57fe5b90600052602060002001540160008260018151811015156107e957fe5b906020019060200201518154811015156107ff57fe5b90600052602060002001819055506001600082600281518110151561082057fe5b9060200190602002015181548110151561083657fe5b906000526020600020015401600082600281518110151561085357fe5b9060200190602002015181548110151561086957fe5b906000526020600020018190555060016007836040518082805190602001908083835b6020831015156108b1578051825260208201915060208101905060208303925061088c565b6001836020036101000a038019825116818451168082178552505050505050905001915050908152602001604051809103902060006101000a81548160ff0219169083151502179055505050565b606060038054600181600116156101000203166002900480601f0160208091040260200160405190810160405280929190818152602001828054600181600116156101000203166002900480156109975780601f1061096c57610100808354040283529160200191610997565b820191906000526020600020905b81548152906001019060200180831161097a57829003601f168201915b5050505050905090565b80600390805190602001906109b7929190610bfe565b5050565b60006007846040518082805190602001908083835b6020831015156109f557805182526020820191506020810190506020830392506109d0565b6001836020036101000a038019825116818451168082178552505050505050905001915050908152602001604051809103902060006101000a81548160ff021916908315150217905550610a47610c7e565b604080519081016040528084815260200183815250905060068190806001815401808255809150509060018203906000526020600020906002020160009091929091909150600082015181600001556020820151816001019080519060200190610ab2929190610c98565b5050505050505050565b60606000805480602002602001604051908101604052809291908181526020018280548015610b0a57602002820191906000526020600020905b815481526020019060010190808311610af6575b5050505050905090565b60055481565b600181815481101515610b2957fe5b906000526020600020016000915090505481565b600281815481101515610b4c57fe5b906000526020600020016000915090505481565b60038054600181600116156101000203166002900480601f016020809104026020016040519081016040528092919081815260200182805460018160011615610100020316600290048015610bf65780601f10610bcb57610100808354040283529160200191610bf6565b820191906000526020600020905b815481529060010190602001808311610bd957829003601f168201915b505050505081565b828054600181600116156101000203166002900490600052602060002090601f016020900481019282601f10610c3f57805160ff1916838001178555610c6d565b82800160010185558215610c6d579182015b82811115610c6c578251825591602001919060010190610c51565b5b509050610c7a9190610d18565b5090565b604080519081016040528060008152602001606081525090565b828054600181600116156101000203166002900490600052602060002090601f016020900481019282601f10610cd957805160ff1916838001178555610d07565b82800160010185558215610d07579182015b82811115610d06578251825591602001919060010190610ceb565b5b509050610d149190610d18565b5090565b610d3a91905b80821115610d36576000816000905550600101610d1e565b5090565b9056fea165627a7a72305820b3dc15a246584f06b1bbde02459f9a80e82d9681cb1ca06d251ecd72656b1eb80029",
  "source": "pragma solidity^0.5.0;\r\n\r\n contract Election {\r\n    \r\n    //Votes in matrix mapped to ballots\r\n    // uint [][] public voteCount;\r\n    uint [] public votes_one;\r\n    uint [] public votes_two;\r\n    uint [] public votes_three;\r\n\r\n    //ID of election on firestore\r\n    string public electionID;\r\n\r\n    uint public startDate;\r\n    uint public endDate;\r\n\r\n    //Stores data of all voters\r\n    Vote [] private voters;\r\n\r\n    //Voters id's\r\n    mapping (string => bool) private voted;\r\n\r\n    struct Vote {\r\n        uint age;\r\n        string gender;    //true for Male, false for Female\r\n        // uint [3] votes;  //stores indices\r\n    }\r\n\r\n    constructor(string memory id, uint sd, uint ed, uint [] memory numCandidates) public {\r\n        electionID = id;\r\n        startDate = sd;\r\n        endDate = ed;\r\n\r\n        votes_one = new uint[](numCandidates[0]);\r\n        votes_two = new uint[](numCandidates[1]);\r\n        votes_three = new uint[](numCandidates[2]);\r\n\r\n        for(uint i = 0; i < numCandidates[0]; i++) {\r\n            votes_one[i] = 0;\r\n        }\r\n\r\n        for(uint i = 0; i < numCandidates[1]; i++) {\r\n            votes_two[i] = 0;\r\n        }\r\n\r\n        for(uint i = 0; i < numCandidates[2]; i++) {\r\n            votes_three[i] = 0;\r\n        }\r\n        //Map matrix\r\n        // voteCount = new uint[][](3);\r\n\r\n        // for (uint i=0; i<3; i++){\r\n        //     voteCount[i] = new uint[](numCandidates[i]);\r\n        // }\r\n\r\n        // for(uint i = 0; i < 3; i++) {\r\n        //     for(uint j = 0; j < voteCount[i].length)\r\n        // }\r\n    }\r\n\r\n    function getVotes1() public view returns( uint [] memory){\r\n        return votes_one;\r\n    }\r\n\r\n    //Register user for election\r\n    function registerUser(string memory id, uint age, string memory gender) public{\r\n        voted[id] = false;\r\n        Vote memory newVote = Vote(age, gender);\r\n        voters.push(newVote);\r\n    }\r\n\r\n    //Vote indices for the 3 ballots\r\n    function addVote(string memory id, uint [] memory votes) public {\r\n        // require(\r\n        //     !voted[id],\r\n        //     \"Already voted\"\r\n        // );\r\n\r\n        //Add votes to indices\r\n        votes_one[votes[0]] = votes_one[votes[0]]+1;\r\n\r\n        votes_one[votes[1]] = votes_one[votes[1]]+1;\r\n\r\n        votes_one[votes[2]] = votes_one[votes[2]]+1;\r\n\r\n        //Set voted to true\r\n        voted[id] = true;\r\n    }\r\n\r\n    //Return vote results\r\n    // function getResults() public view returns (uint [][] memory) {\r\n    //     return voteCount;\r\n    // }\r\n\r\n    function getId() public view returns (string memory){\r\n        return electionID;\r\n    }\r\n\r\n    function updateId(string memory id) public {\r\n        electionID = id;\r\n    }\r\n\r\n    // function countVotes() public view {\r\n    //     uint [] memory winners = new uint[](3);\r\n        \r\n    //     uint count = 0;\r\n\r\n        \r\n\r\n    //     returns (uint count)\r\n\r\n    // }\r\n\r\n    // function votePeriod() public view {\r\n    //     uint days = (endDate - startDate) / 60 / 60 / 24;\r\n    //     returns (uint days)\r\n    // }\r\n\r\n\r\n\r\n}\r\n\r\n// pragma solidity^0.5.0;\r\n\r\n//  contract Election {\r\n    \r\n//     uint [3][] public voteCount;\r\n//     string public electionID;\r\n//     uint public startDate;\r\n//     uint public endDate;\r\n//     string [] public voters;\r\n\r\n//     constructor(string memory id, uint sd, string [] memory Voters, uint [] ballotLengths, uint [] numCandidates) public {\r\n//         electionID = id;\r\n//         startDate = sd;\r\n\r\n\r\n//         for (uint i=0; i<3; i++){\r\n//             voteCount[i] = i;\r\n//         }\r\n\r\n//         for(uint i=0; i<3; i++){\r\n//             for(uint j=0; j< numCandidates.length; j++){\r\n//                 voteCount[i][j].length = numCandidates[j];\r\n//             }\r\n//         }\r\n\r\n//         voters.length = Voters.length;\r\n//         for(uint i=0; i<voters.length; i++){\r\n//             voters[i] = \"\";\r\n//         }\r\n\r\n//         for(uint i=0; i<voters.length; i++){\r\n//             voters[i] = Voters[i];\r\n//         }\r\n//     }\r\n\r\n//     struct Vote {\r\n//         uint age;\r\n//         bool gender;    //true for Male, false for Female\r\n//         uint [3] votes;  //stores indices\r\n//     }\r\n\r\n//     function addVote(uint ballot, uint candidate) public {\r\n//         voteCount[ballot][candidate] += 1;\r\n//     }\r\n\r\n//     function getId() public view returns (string memory){\r\n//         return electionID;\r\n//     }\r\n\r\n//     function updateId(string memory id) public {\r\n//         electionID = id;\r\n//     }\r\n\r\n//     // function countVotes() public view {\r\n//     //     uint count = 0;\r\n\r\n//     //     for(uint i=0; i>0; i++) {\r\n//     //         for( uint j=0; j<=i; j++) {\r\n//     //             if (voteCount[i][j] > 0) {\r\n//     //                 count++;\r\n//     //             }\r\n//     //             else {\r\n//     //                 break;\r\n//     //             }\r\n//     //         }\r\n//     //     }\r\n\r\n//     //     returns (uint count)\r\n\r\n//     // }\r\n\r\n//     // function votePeriod() public view {\r\n//     //     uint days = (endDate - startDate) / 60 / 60 / 24;\r\n//     //     returns (uint days)\r\n//     // }\r\n\r\n\r\n\r\n// }\r\n\r\n",
  "sourcePath": "C:/Users/bevan/OneDrive/Documents/GitHub/Vote-Vault/Backend/Blockchain/contracts/Election.sol",
  "compiler": {
    "name": "solc",
    "version": "0.5.0+commit.1d4f565a.Emscripten.clang"
  },
  "schemaVersion": "3.0.1",
  "updatedAt": "2022-08-16T16:43:51.047Z",
  "devdoc": {
    "methods": {}
  },
  "userdoc": {
    "methods": {}
  }
}