{
  "contractName": "Election",
  "abi": [
    {
      "constant": true,
      "inputs": [],
      "name": "startDate",
      "outputs": [
        {
          "name": "",
          "type": "uint256"
        }
      ],
      "payable": false,
      "stateMutability": "view",
      "type": "function"
    },
    {
      "constant": true,
      "inputs": [
        {
          "name": "",
          "type": "uint256"
        }
      ],
      "name": "votes_one",
      "outputs": [
        {
          "name": "",
          "type": "uint256"
        }
      ],
      "payable": false,
      "stateMutability": "view",
      "type": "function"
    },
    {
      "constant": true,
      "inputs": [],
      "name": "endDate",
      "outputs": [
        {
          "name": "",
          "type": "uint256"
        }
      ],
      "payable": false,
      "stateMutability": "view",
      "type": "function"
    },
    {
      "constant": true,
      "inputs": [
        {
          "name": "",
          "type": "uint256"
        }
      ],
      "name": "votes_two",
      "outputs": [
        {
          "name": "",
          "type": "uint256"
        }
      ],
      "payable": false,
      "stateMutability": "view",
      "type": "function"
    },
    {
      "constant": true,
      "inputs": [
        {
          "name": "",
          "type": "uint256"
        }
      ],
      "name": "votes_three",
      "outputs": [
        {
          "name": "",
          "type": "uint256"
        }
      ],
      "payable": false,
      "stateMutability": "view",
      "type": "function"
    },
    {
      "constant": true,
      "inputs": [],
      "name": "electionID",
      "outputs": [
        {
          "name": "",
          "type": "string"
        }
      ],
      "payable": false,
      "stateMutability": "view",
      "type": "function"
    },
    {
      "inputs": [
        {
          "name": "id",
          "type": "string"
        },
        {
          "name": "sd",
          "type": "uint256"
        },
        {
          "name": "ed",
          "type": "uint256"
        },
        {
          "name": "numCandidates",
          "type": "uint256[]"
        }
      ],
      "payable": false,
      "stateMutability": "nonpayable",
      "type": "constructor"
    },
    {
      "constant": true,
      "inputs": [],
      "name": "getVotes1",
      "outputs": [
        {
          "name": "",
          "type": "uint256[]"
        }
      ],
      "payable": false,
      "stateMutability": "view",
      "type": "function"
    },
    {
      "constant": true,
      "inputs": [],
      "name": "getVotes2",
      "outputs": [
        {
          "name": "",
          "type": "uint256[]"
        }
      ],
      "payable": false,
      "stateMutability": "view",
      "type": "function"
    },
    {
      "constant": true,
      "inputs": [],
      "name": "getVotes3",
      "outputs": [
        {
          "name": "",
          "type": "uint256[]"
        }
      ],
      "payable": false,
      "stateMutability": "view",
      "type": "function"
    },
    {
      "constant": false,
      "inputs": [
        {
          "name": "id",
          "type": "string"
        },
        {
          "name": "age",
          "type": "uint256"
        },
        {
          "name": "gender",
          "type": "string"
        }
      ],
      "name": "registerUser",
      "outputs": [],
      "payable": false,
      "stateMutability": "nonpayable",
      "type": "function"
    },
    {
      "constant": false,
      "inputs": [
        {
          "name": "id",
          "type": "string"
        },
        {
          "name": "votes",
          "type": "uint256[]"
        }
      ],
      "name": "addVote",
      "outputs": [],
      "payable": false,
      "stateMutability": "nonpayable",
      "type": "function"
    },
    {
      "constant": true,
      "inputs": [],
      "name": "getId",
      "outputs": [
        {
          "name": "",
          "type": "string"
        }
      ],
      "payable": false,
      "stateMutability": "view",
      "type": "function"
    },
    {
      "constant": false,
      "inputs": [
        {
          "name": "id",
          "type": "string"
        }
      ],
      "name": "updateId",
      "outputs": [],
      "payable": false,
      "stateMutability": "nonpayable",
      "type": "function"
    }
  ],
  "bytecode": "0x60806040523480156200001157600080fd5b506040516200145338038062001453833981018060405260808110156200003757600080fd5b8101908080516401000000008111156200005057600080fd5b828101905060208101848111156200006757600080fd5b81518560018202830111640100000000821117156200008557600080fd5b505092919060200180519060200190929190805190602001909291908051640100000000811115620000b657600080fd5b82810190506020810184811115620000cd57600080fd5b8151856020820283011164010000000082111715620000eb57600080fd5b505092919050505083600390805190602001906200010b9291906200034e565b5082600481905550816005819055508060008151811015156200012a57fe5b90602001906020020151604051908082528060200260200182016040528015620001635781602001602082028038833980820191505090505b50600090805190602001906200017b929190620003d5565b508060018151811015156200018c57fe5b90602001906020020151604051908082528060200260200182016040528015620001c55781602001602082028038833980820191505090505b5060019080519060200190620001dd929190620003d5565b50806002815181101515620001ee57fe5b90602001906020020151604051908082528060200260200182016040528015620002275781602001602082028038833980820191505090505b50600290805190602001906200023f929190620003d5565b5060008090505b8160008151811015156200025657fe5b906020019060200201518110156200029557600080828154811015156200027957fe5b9060005260206000200181905550808060010191505062000246565b5060008090505b816001815181101515620002ac57fe5b90602001906020020151811015620002ec576000600182815481101515620002d057fe5b906000526020600020018190555080806001019150506200029c565b5060008090505b8160028151811015156200030357fe5b90602001906020020151811015620003435760006002828154811015156200032757fe5b90600052602060002001819055508080600101915050620002f3565b50505050506200044f565b828054600181600116156101000203166002900490600052602060002090601f016020900481019282601f106200039157805160ff1916838001178555620003c2565b82800160010185558215620003c2579182015b82811115620003c1578251825591602001919060010190620003a4565b5b509050620003d1919062000427565b5090565b82805482825590600052602060002090810192821562000414579160200282015b8281111562000413578251825591602001919060010190620003f6565b5b50905062000423919062000427565b5090565b6200044c91905b80821115620004485760008160009055506001016200042e565b5090565b90565b610ff4806200045f6000396000f3fe6080604052600436106100c5576000357c0100000000000000000000000000000000000000000000000000000000900463ffffffff1680630b97bc86146100ca578063151cb180146100f55780635295da5d146101445780635d1ca631146102a05780635ede13731461033057806362609da4146103f8578063a051220214610561578063a4e3d111146105cd578063b19ef12414610639578063c24a0f8b146106a5578063dfd66c6d146106d0578063f0b99cdd1461071f578063f8e78e9a1461076e575b600080fd5b3480156100d657600080fd5b506100df6107fe565b6040518082815260200191505060405180910390f35b34801561010157600080fd5b5061012e6004803603602081101561011857600080fd5b8101908080359060200190929190505050610804565b6040518082815260200191505060405180910390f35b34801561015057600080fd5b5061029e6004803603604081101561016757600080fd5b810190808035906020019064010000000081111561018457600080fd5b82018360208201111561019657600080fd5b803590602001918460018302840111640100000000831117156101b857600080fd5b91908080601f016020809104026020016040519081016040528093929190818152602001838380828437600081840152601f19601f8201169050808301925050505050505091929192908035906020019064010000000081111561021b57600080fd5b82018360208201111561022d57600080fd5b8035906020019184602083028401116401000000008311171561024f57600080fd5b919080806020026020016040519081016040528093929190818152602001838360200280828437600081840152601f19601f820116905080830192505050505050509192919290505050610827565b005b3480156102ac57600080fd5b506102b5610ada565b6040518080602001828103825283818151815260200191508051906020019080838360005b838110156102f55780820151818401526020810190506102da565b50505050905090810190601f1680156103225780820380516001836020036101000a031916815260200191505b509250505060405180910390f35b34801561033c57600080fd5b506103f66004803603602081101561035357600080fd5b810190808035906020019064010000000081111561037057600080fd5b82018360208201111561038257600080fd5b803590602001918460018302840111640100000000831117156103a457600080fd5b91908080601f016020809104026020016040519081016040528093929190818152602001838380828437600081840152601f19601f820116905080830192505050505050509192919290505050610b7c565b005b34801561040457600080fd5b5061055f6004803603606081101561041b57600080fd5b810190808035906020019064010000000081111561043857600080fd5b82018360208201111561044a57600080fd5b8035906020019184600183028401116401000000008311171561046c57600080fd5b91908080601f016020809104026020016040519081016040528093929190818152602001838380828437600081840152601f19601f82011690508083019250505050505050919291929080359060200190929190803590602001906401000000008111156104d957600080fd5b8201836020820111156104eb57600080fd5b8035906020019184600183028401116401000000008311171561050d57600080fd5b91908080601f016020809104026020016040519081016040528093929190818152602001838380828437600081840152601f19601f820116905080830192505050505050509192919290505050610b96565b005b34801561056d57600080fd5b50610576610c97565b6040518080602001828103825283818151815260200191508051906020019060200280838360005b838110156105b957808201518184015260208101905061059e565b505050509050019250505060405180910390f35b3480156105d957600080fd5b506105e2610cef565b6040518080602001828103825283818151815260200191508051906020019060200280838360005b8381101561062557808201518184015260208101905061060a565b505050509050019250505060405180910390f35b34801561064557600080fd5b5061064e610d47565b6040518080602001828103825283818151815260200191508051906020019060200280838360005b83811015610691578082015181840152602081019050610676565b505050509050019250505060405180910390f35b3480156106b157600080fd5b506106ba610d9f565b6040518082815260200191505060405180910390f35b3480156106dc57600080fd5b50610709600480360360208110156106f357600080fd5b8101908080359060200190929190505050610da5565b6040518082815260200191505060405180910390f35b34801561072b57600080fd5b506107586004803603602081101561074257600080fd5b8101908080359060200190929190505050610dc8565b6040518082815260200191505060405180910390f35b34801561077a57600080fd5b50610783610deb565b6040518080602001828103825283818151815260200191508051906020019080838360005b838110156107c35780820151818401526020810190506107a8565b50505050905090810190601f1680156107f05780820380516001836020036101000a031916815260200191505b509250505060405180910390f35b60045481565b60008181548110151561081357fe5b906000526020600020016000915090505481565b6007826040518082805190602001908083835b60208310151561085f578051825260208201915060208101905060208303925061083a565b6001836020036101000a038019825116818451168082178552505050505050905001915050908152602001604051809103902060009054906101000a900460ff16151515610915576040517f08c379a000000000000000000000000000000000000000000000000000000000815260040180806020018281038252600d8152602001807f416c726561647920766f7465640000000000000000000000000000000000000081525060200191505060405180910390fd5b6001600082600081518110151561092857fe5b9060200190602002015181548110151561093e57fe5b906000526020600020015401600082600081518110151561095b57fe5b9060200190602002015181548110151561097157fe5b906000526020600020018190555060018082600181518110151561099157fe5b906020019060200201518154811015156109a757fe5b90600052602060002001540160018260018151811015156109c457fe5b906020019060200201518154811015156109da57fe5b9060005260206000200181905550600160028260028151811015156109fb57fe5b90602001906020020151815481101515610a1157fe5b9060005260206000200154016002826002815181101515610a2e57fe5b90602001906020020151815481101515610a4457fe5b906000526020600020018190555060016007836040518082805190602001908083835b602083101515610a8c5780518252602082019150602081019050602083039250610a67565b6001836020036101000a038019825116818451168082178552505050505050905001915050908152602001604051809103902060006101000a81548160ff0219169083151502179055505050565b606060038054600181600116156101000203166002900480601f016020809104026020016040519081016040528092919081815260200182805460018160011615610100020316600290048015610b725780601f10610b4757610100808354040283529160200191610b72565b820191906000526020600020905b815481529060010190602001808311610b5557829003601f168201915b5050505050905090565b8060039080519060200190610b92929190610e89565b5050565b60006007846040518082805190602001908083835b602083101515610bd05780518252602082019150602081019050602083039250610bab565b6001836020036101000a038019825116818451168082178552505050505050905001915050908152602001604051809103902060006101000a81548160ff021916908315150217905550610c22610f09565b604080519081016040528084815260200183815250905060068190806001815401808255809150509060018203906000526020600020906002020160009091929091909150600082015181600001556020820151816001019080519060200190610c8d929190610f23565b5050505050505050565b60606000805480602002602001604051908101604052809291908181526020018280548015610ce557602002820191906000526020600020905b815481526020019060010190808311610cd1575b5050505050905090565b60606001805480602002602001604051908101604052809291908181526020018280548015610d3d57602002820191906000526020600020905b815481526020019060010190808311610d29575b5050505050905090565b60606002805480602002602001604051908101604052809291908181526020018280548015610d9557602002820191906000526020600020905b815481526020019060010190808311610d81575b5050505050905090565b60055481565b600181815481101515610db457fe5b906000526020600020016000915090505481565b600281815481101515610dd757fe5b906000526020600020016000915090505481565b60038054600181600116156101000203166002900480601f016020809104026020016040519081016040528092919081815260200182805460018160011615610100020316600290048015610e815780601f10610e5657610100808354040283529160200191610e81565b820191906000526020600020905b815481529060010190602001808311610e6457829003601f168201915b505050505081565b828054600181600116156101000203166002900490600052602060002090601f016020900481019282601f10610eca57805160ff1916838001178555610ef8565b82800160010185558215610ef8579182015b82811115610ef7578251825591602001919060010190610edc565b5b509050610f059190610fa3565b5090565b604080519081016040528060008152602001606081525090565b828054600181600116156101000203166002900490600052602060002090601f016020900481019282601f10610f6457805160ff1916838001178555610f92565b82800160010185558215610f92579182015b82811115610f91578251825591602001919060010190610f76565b5b509050610f9f9190610fa3565b5090565b610fc591905b80821115610fc1576000816000905550600101610fa9565b5090565b9056fea165627a7a7230582055170926d13840b476e9cc7af1ccfccccc76e5c2de9948e805ef1474a63b46ce0029",
  "source": "pragma solidity^0.5.0;\r\n\r\n contract Election {\r\n    \r\n    //Votes in matrix mapped to ballots\r\n    // uint [][] public voteCount;\r\n    uint [] public votes_one;\r\n    uint [] public votes_two;\r\n    uint [] public votes_three;\r\n\r\n    //ID of election on firestore\r\n    string public electionID;\r\n\r\n    uint public startDate;\r\n    uint public endDate;\r\n\r\n    //Stores data of all voters\r\n    Vote [] private voters;\r\n\r\n    //Voters id's\r\n    mapping (string => bool) private voted;\r\n\r\n    struct Vote {\r\n        uint age;\r\n        string gender;    //true for Male, false for Female\r\n        // uint [3] votes;  //stores indices\r\n    }\r\n\r\n    constructor(string memory id, uint sd, uint ed, uint [] memory numCandidates) public {\r\n        electionID = id;\r\n        startDate = sd;\r\n        endDate = ed;\r\n\r\n        votes_one = new uint[](numCandidates[0]);\r\n        votes_two = new uint[](numCandidates[1]);\r\n        votes_three = new uint[](numCandidates[2]);\r\n\r\n        for(uint i = 0; i < numCandidates[0]; i++) {\r\n            votes_one[i] = 0;\r\n        }\r\n\r\n        for(uint i = 0; i < numCandidates[1]; i++) {\r\n            votes_two[i] = 0;\r\n        }\r\n\r\n        for(uint i = 0; i < numCandidates[2]; i++) {\r\n            votes_three[i] = 0;\r\n        }\r\n        //Map matrix\r\n        // voteCount = new uint[][](3);\r\n\r\n        // for (uint i=0; i<3; i++){\r\n        //     voteCount[i] = new uint[](numCandidates[i]);\r\n        // }\r\n\r\n        // for(uint i = 0; i < 3; i++) {\r\n        //     for(uint j = 0; j < voteCount[i].length)\r\n        // }\r\n    }\r\n\r\n    function getVotes1() public view returns( uint [] memory){\r\n        return votes_one;\r\n    }\r\n\r\n    function getVotes2() public view returns( uint [] memory){\r\n        return votes_two;\r\n    }\r\n\r\n    function getVotes3() public view returns( uint [] memory){\r\n        return votes_three;\r\n    }\r\n\r\n    //Register user for election\r\n    function registerUser(string memory id, uint age, string memory gender) public{\r\n        voted[id] = false;\r\n        Vote memory newVote = Vote(age, gender);\r\n        voters.push(newVote);\r\n    }\r\n\r\n    //Vote indices for the 3 ballots\r\n    function addVote(string memory id, uint [] memory votes) public {\r\n        require(\r\n            !voted[id],\r\n            \"Already voted\"\r\n        );\r\n\r\n        //Add votes to indices\r\n        votes_one[votes[0]] = votes_one[votes[0]]+1;\r\n\r\n        votes_two[votes[1]] = votes_two[votes[1]]+1;\r\n\r\n        votes_three[votes[2]] = votes_three[votes[2]]+1;\r\n\r\n        //Set voted to true\r\n        voted[id] = true;\r\n    }\r\n\r\n    //Return vote results\r\n    // function getResults() public view returns (uint [][] memory) {\r\n    //     return voteCount;\r\n    // }\r\n\r\n    function getId() public view returns (string memory){\r\n        return electionID;\r\n    }\r\n\r\n    function updateId(string memory id) public {\r\n        electionID = id;\r\n    }\r\n\r\n    // function countVotes() public view {\r\n    //     uint [] memory winners = new uint[](3);\r\n        \r\n    //     uint count = 0;\r\n\r\n        \r\n\r\n    //     returns (uint count)\r\n\r\n    // }\r\n\r\n    // function votePeriod() public view {\r\n    //     uint days = (endDate - startDate) / 60 / 60 / 24;\r\n    //     returns (uint days)\r\n    // }\r\n\r\n\r\n\r\n}\r\n\r\n// pragma solidity^0.5.0;\r\n\r\n//  contract Election {\r\n    \r\n//     uint [3][] public voteCount;\r\n//     string public electionID;\r\n//     uint public startDate;\r\n//     uint public endDate;\r\n//     string [] public voters;\r\n\r\n//     constructor(string memory id, uint sd, string [] memory Voters, uint [] ballotLengths, uint [] numCandidates) public {\r\n//         electionID = id;\r\n//         startDate = sd;\r\n\r\n\r\n//         for (uint i=0; i<3; i++){\r\n//             voteCount[i] = i;\r\n//         }\r\n\r\n//         for(uint i=0; i<3; i++){\r\n//             for(uint j=0; j< numCandidates.length; j++){\r\n//                 voteCount[i][j].length = numCandidates[j];\r\n//             }\r\n//         }\r\n\r\n//         voters.length = Voters.length;\r\n//         for(uint i=0; i<voters.length; i++){\r\n//             voters[i] = \"\";\r\n//         }\r\n\r\n//         for(uint i=0; i<voters.length; i++){\r\n//             voters[i] = Voters[i];\r\n//         }\r\n//     }\r\n\r\n//     struct Vote {\r\n//         uint age;\r\n//         bool gender;    //true for Male, false for Female\r\n//         uint [3] votes;  //stores indices\r\n//     }\r\n\r\n//     function addVote(uint ballot, uint candidate) public {\r\n//         voteCount[ballot][candidate] += 1;\r\n//     }\r\n\r\n//     function getId() public view returns (string memory){\r\n//         return electionID;\r\n//     }\r\n\r\n//     function updateId(string memory id) public {\r\n//         electionID = id;\r\n//     }\r\n\r\n//     // function countVotes() public view {\r\n//     //     uint count = 0;\r\n\r\n//     //     for(uint i=0; i>0; i++) {\r\n//     //         for( uint j=0; j<=i; j++) {\r\n//     //             if (voteCount[i][j] > 0) {\r\n//     //                 count++;\r\n//     //             }\r\n//     //             else {\r\n//     //                 break;\r\n//     //             }\r\n//     //         }\r\n//     //     }\r\n\r\n//     //     returns (uint count)\r\n\r\n//     // }\r\n\r\n//     // function votePeriod() public view {\r\n//     //     uint days = (endDate - startDate) / 60 / 60 / 24;\r\n//     //     returns (uint days)\r\n//     // }\r\n\r\n\r\n\r\n// }\r\n\r\n",
  "sourcePath": "C:/Users/bevan/OneDrive/Documents/GitHub/Vote-Vault/Backend/Blockchain/contracts/Election.sol",
  "compiler": {
    "name": "solc",
    "version": "0.5.0+commit.1d4f565a.Emscripten.clang"
  },
  "schemaVersion": "3.0.1",
  "updatedAt": "2022-08-17T06:00:41.541Z",
  "devdoc": {
    "methods": {}
  },
  "userdoc": {
    "methods": {}
  }
}